:020000020000FC
:1000000000271127222733274427552766277727DC
:100010008827992700E007BB0FEF01BB0FE50DBF55
:1000200004E00EBF00271FEF2FEF0FEF08BB00B358
:1000300000740034D1F30C941D0000B30074003040
:10004000E1F300E008BB0C942500123091F012E0BF
:100050003AE748EC58EC00B320235A95E1F700B397
:1000600020234A95C1F700B320233A95A1F70C94B9
:1000700015003AE748EC58EC00B30270023089F4FE
:100080005A95D1F700B30270023059F44A95A1F79E
:1000900000B30270023029F43A9571F799270C9455
:1000A0009E0000B302700030E1F3933011F00C9425
:1000B0005C0099270C943C0067E078EC88EC913068
:1000C00011F00C9483000FEF08BB00B302700230F4
:1000D000A9F48A95C1F70FEF08BB00B30270023094
:1000E00069F47A9581F70FEF08BB00B30270023014
:1000F00029F46A9541F799270C945C0093E000E09D
:1001000008BB0C9451000DEF08BB00B30270023025
:10011000A9F78A95C1F70DEF08BB00B30270023052
:1001200069F77A9581F70DEF08BB00B302700230D2
:1001300029F76A9541F791E00C945C001FEF1223B8
:100140001470103019F011270C94D700112733E1E7
:1001500048EC58EC0BEF08BB00B30170013009F517
:1001600000B30078003801F55A95A1F70BEF08BBF2
:1001700000B301700130A9F400B300780038A1F495
:100180004A9541F70BEF08BB00B30170013049F409
:1001900000B30078003841F43A95E1F699270C94C1
:1001A000D70090E00C94A50194E10C9412021FEF8B
:1001B00012231871103031F0183051F0103171F0F5
:1001C000183191F0112733E148EC58EC0C94FA0007
:1001D000112736E248EC58EC0C94FA00112738E36A
:1001E00048EC58EC0C94FA00112734E548EC58EC34
:1001F0000C94FA0007EF08BB00B30170013011F551
:1002000000B30078003809F55A95A1F707EF08BB4D
:1002100000B301700130B1F400B300780038A9F4E4
:100220004A9541F707EF08BB00B30170013051F464
:1002300000B30078003849F43A95E1F69927112780
:100240000C94280191E00C94A50195E10C94120204
:1002500035E048EC58EC0FEE08BB00B301700130FC
:1002600011F500B30078003809F55A95A1F70FEEA3
:1002700008BB00B301700130B1F400B3007800385E
:10028000A9F44A9541F70FEE08BB00B301700130A5
:1002900051F400B30078003849F43A95E1F6992713
:1002A00011270C94590192E00C94A50196E10C944D
:1002B00012021FEF12231072103241F499271127F6
:1002C0000C94990111273AE048EC58EC0FED08BB6B
:1002D00000B30170013011F500B30078003809F562
:1002E0005A95A1F70FED08BB00B301700130B1F4CE
:1002F00000B300780038A9F44A9541F70FED08BB28
:1003000000B30170013051F400B30078003849F4B3
:100310003A95E1F6992711270C94940193E00C94F7
:10032000A50197E10C9412020FE708BB36E648ECF2
:1003300058EC5A95F1F74A95E1F73A95D1F70C94B4
:10034000A1010FEF08BB0C947F0200B301700030D5
:10035000E1F3903081F0913089F0923091F0933058
:1003600099F09A30A1F09B30A9F09C30B1F09D300B
:10037000B9F00C94D3019AE00C94D3019BE00C9457
:10038000D3019CE00C94D3019DE00C94D3019927F8
:100390000C94AA0099270C94FA0099270C942B012D
:1003A00099270C94660167E078EC88EC113011F025
:1003B0000C94F7010FEF08BB00B301700130A9F4F2
:1003C0008A95C1F70FEF08BB00B30170013069F4E3
:1003D0008A9581F70FEF08BB00B30170013029F453
:1003E0008A9541F711270C94D3010C94A5010EEFC7
:1003F00008BB00B301700130C1F78A95C1F70EEF59
:1004000008BB00B30170013081F78A9581F70EEFC8
:1004100008BB00B30170013041F78A9541F711E044
:100420000C94D30100B300780030E1F3943181F0F3
:10043000953189F0963191F0973199F09E31A1F084
:100440009F31A9F09032B1F09132B9F00C94400292
:100450009EE10C9440029FE10C94400290E20C94C7
:10046000400291E20C94400299270C94AA0099272B
:100470000C94FA0099270C942B0199270C9466018F
:1004800067E078EC88EC113011F00C9464020FEB0B
:1004900008BB00B300780038A9F48A95C1F70FEBC8
:1004A00008BB00B30078003869F47A9581F70FEB48
:1004B00008BB00B30078003829F46A9541F711278A
:1004C0000C9440020C9412020DEB08BB00B30078B0
:1004D0000038C1F78A95C1F70DEB08BB00B300786F
:1004E000003881F77A9581F70DEB08BB00B30078EF
:1004F000003841F76A9541F711E00C944002FFCFB4
:00000001FF
